{
  "_format": "hh3-artifact-1",
  "contractName": "AgentMarketplace",
  "sourceName": "contracts/AgentMarketplace.sol",
  "abi": [
    {
      "inputs": [],
      "stateMutability": "nonpayable",
      "type": "constructor"
    },
    {
      "anonymous": false,
      "inputs": [
        {
          "indexed": true,
          "internalType": "address",
          "name": "agent",
          "type": "address"
        },
        {
          "indexed": false,
          "internalType": "string",
          "name": "name",
          "type": "string"
        },
        {
          "indexed": false,
          "internalType": "string",
          "name": "metadataURI",
          "type": "string"
        }
      ],
      "name": "AgentRegistered",
      "type": "event"
    },
    {
      "anonymous": false,
      "inputs": [
        {
          "indexed": true,
          "internalType": "address",
          "name": "backend",
          "type": "address"
        }
      ],
      "name": "AuthorizedBackendUpdated",
      "type": "event"
    },
    {
      "anonymous": false,
      "inputs": [
        {
          "indexed": true,
          "internalType": "uint256",
          "name": "paymentId",
          "type": "uint256"
        },
        {
          "indexed": true,
          "internalType": "uint256",
          "name": "serviceId",
          "type": "uint256"
        },
        {
          "indexed": true,
          "internalType": "address",
          "name": "buyer",
          "type": "address"
        },
        {
          "indexed": false,
          "internalType": "uint256",
          "name": "amount",
          "type": "uint256"
        }
      ],
      "name": "PaymentRecorded",
      "type": "event"
    },
    {
      "anonymous": false,
      "inputs": [
        {
          "indexed": true,
          "internalType": "uint256",
          "name": "serviceId",
          "type": "uint256"
        },
        {
          "indexed": true,
          "internalType": "address",
          "name": "reviewer",
          "type": "address"
        },
        {
          "indexed": false,
          "internalType": "uint8",
          "name": "score",
          "type": "uint8"
        }
      ],
      "name": "RatingSubmitted",
      "type": "event"
    },
    {
      "anonymous": false,
      "inputs": [
        {
          "indexed": true,
          "internalType": "uint256",
          "name": "serviceId",
          "type": "uint256"
        },
        {
          "indexed": true,
          "internalType": "address",
          "name": "provider",
          "type": "address"
        },
        {
          "indexed": false,
          "internalType": "uint256",
          "name": "priceWei",
          "type": "uint256"
        }
      ],
      "name": "ServiceCreated",
      "type": "event"
    },
    {
      "inputs": [
        {
          "internalType": "address",
          "name": "",
          "type": "address"
        }
      ],
      "name": "agents",
      "outputs": [
        {
          "internalType": "address",
          "name": "wallet",
          "type": "address"
        },
        {
          "internalType": "string",
          "name": "name",
          "type": "string"
        },
        {
          "internalType": "string",
          "name": "metadataURI",
          "type": "string"
        },
        {
          "internalType": "uint256",
          "name": "reputationScore",
          "type": "uint256"
        },
        {
          "internalType": "uint256",
          "name": "totalRatings",
          "type": "uint256"
        },
        {
          "internalType": "uint256",
          "name": "ratingSum",
          "type": "uint256"
        },
        {
          "internalType": "bool",
          "name": "registered",
          "type": "bool"
        }
      ],
      "stateMutability": "view",
      "type": "function"
    },
    {
      "inputs": [],
      "name": "authorizedBackend",
      "outputs": [
        {
          "internalType": "address",
          "name": "",
          "type": "address"
        }
      ],
      "stateMutability": "view",
      "type": "function"
    },
    {
      "inputs": [
        {
          "internalType": "string",
          "name": "title",
          "type": "string"
        },
        {
          "internalType": "string",
          "name": "descriptionURI",
          "type": "string"
        },
        {
          "internalType": "uint256",
          "name": "priceWei",
          "type": "uint256"
        }
      ],
      "name": "createService",
      "outputs": [],
      "stateMutability": "nonpayable",
      "type": "function"
    },
    {
      "inputs": [
        {
          "internalType": "address",
          "name": "agent",
          "type": "address"
        }
      ],
      "name": "getAgentRating",
      "outputs": [
        {
          "internalType": "uint256",
          "name": "reputationScore",
          "type": "uint256"
        },
        {
          "internalType": "uint256",
          "name": "totalRatings",
          "type": "uint256"
        }
      ],
      "stateMutability": "view",
      "type": "function"
    },
    {
      "inputs": [],
      "name": "getAgents",
      "outputs": [
        {
          "internalType": "address[]",
          "name": "",
          "type": "address[]"
        }
      ],
      "stateMutability": "view",
      "type": "function"
    },
    {
      "inputs": [
        {
          "internalType": "address",
          "name": "",
          "type": "address"
        },
        {
          "internalType": "uint256",
          "name": "",
          "type": "uint256"
        }
      ],
      "name": "hasPurchasedService",
      "outputs": [
        {
          "internalType": "bool",
          "name": "",
          "type": "bool"
        }
      ],
      "stateMutability": "view",
      "type": "function"
    },
    {
      "inputs": [
        {
          "internalType": "address",
          "name": "",
          "type": "address"
        },
        {
          "internalType": "uint256",
          "name": "",
          "type": "uint256"
        }
      ],
      "name": "hasRatedService",
      "outputs": [
        {
          "internalType": "bool",
          "name": "",
          "type": "bool"
        }
      ],
      "stateMutability": "view",
      "type": "function"
    },
    {
      "inputs": [],
      "name": "owner",
      "outputs": [
        {
          "internalType": "address",
          "name": "",
          "type": "address"
        }
      ],
      "stateMutability": "view",
      "type": "function"
    },
    {
      "inputs": [],
      "name": "paymentCounter",
      "outputs": [
        {
          "internalType": "uint256",
          "name": "",
          "type": "uint256"
        }
      ],
      "stateMutability": "view",
      "type": "function"
    },
    {
      "inputs": [
        {
          "internalType": "uint256",
          "name": "",
          "type": "uint256"
        }
      ],
      "name": "payments",
      "outputs": [
        {
          "internalType": "uint256",
          "name": "id",
          "type": "uint256"
        },
        {
          "internalType": "uint256",
          "name": "serviceId",
          "type": "uint256"
        },
        {
          "internalType": "address",
          "name": "buyer",
          "type": "address"
        },
        {
          "internalType": "address",
          "name": "provider",
          "type": "address"
        },
        {
          "internalType": "uint256",
          "name": "amount",
          "type": "uint256"
        },
        {
          "internalType": "uint256",
          "name": "timestamp",
          "type": "uint256"
        }
      ],
      "stateMutability": "view",
      "type": "function"
    },
    {
      "inputs": [
        {
          "internalType": "uint256",
          "name": "serviceId",
          "type": "uint256"
        },
        {
          "internalType": "address",
          "name": "buyer",
          "type": "address"
        },
        {
          "internalType": "uint256",
          "name": "amount",
          "type": "uint256"
        }
      ],
      "name": "recordPayment",
      "outputs": [],
      "stateMutability": "nonpayable",
      "type": "function"
    },
    {
      "inputs": [
        {
          "internalType": "string",
          "name": "name",
          "type": "string"
        },
        {
          "internalType": "string",
          "name": "metadataURI",
          "type": "string"
        }
      ],
      "name": "registerAgent",
      "outputs": [],
      "stateMutability": "nonpayable",
      "type": "function"
    },
    {
      "inputs": [
        {
          "internalType": "uint256",
          "name": "",
          "type": "uint256"
        }
      ],
      "name": "registeredAgents",
      "outputs": [
        {
          "internalType": "address",
          "name": "",
          "type": "address"
        }
      ],
      "stateMutability": "view",
      "type": "function"
    },
    {
      "inputs": [],
      "name": "serviceCounter",
      "outputs": [
        {
          "internalType": "uint256",
          "name": "",
          "type": "uint256"
        }
      ],
      "stateMutability": "view",
      "type": "function"
    },
    {
      "inputs": [
        {
          "internalType": "uint256",
          "name": "",
          "type": "uint256"
        },
        {
          "internalType": "uint256",
          "name": "",
          "type": "uint256"
        }
      ],
      "name": "serviceRatings",
      "outputs": [
        {
          "internalType": "address",
          "name": "reviewer",
          "type": "address"
        },
        {
          "internalType": "uint256",
          "name": "serviceId",
          "type": "uint256"
        },
        {
          "internalType": "uint8",
          "name": "score",
          "type": "uint8"
        }
      ],
      "stateMutability": "view",
      "type": "function"
    },
    {
      "inputs": [
        {
          "internalType": "uint256",
          "name": "",
          "type": "uint256"
        }
      ],
      "name": "services",
      "outputs": [
        {
          "internalType": "uint256",
          "name": "id",
          "type": "uint256"
        },
        {
          "internalType": "address",
          "name": "provider",
          "type": "address"
        },
        {
          "internalType": "string",
          "name": "title",
          "type": "string"
        },
        {
          "internalType": "string",
          "name": "descriptionURI",
          "type": "string"
        },
        {
          "internalType": "uint256",
          "name": "priceWei",
          "type": "uint256"
        },
        {
          "internalType": "bool",
          "name": "active",
          "type": "bool"
        }
      ],
      "stateMutability": "view",
      "type": "function"
    },
    {
      "inputs": [
        {
          "internalType": "address",
          "name": "backend",
          "type": "address"
        }
      ],
      "name": "setAuthorizedBackend",
      "outputs": [],
      "stateMutability": "nonpayable",
      "type": "function"
    },
    {
      "inputs": [
        {
          "internalType": "uint256",
          "name": "serviceId",
          "type": "uint256"
        },
        {
          "internalType": "uint8",
          "name": "score",
          "type": "uint8"
        }
      ],
      "name": "submitRating",
      "outputs": [],
      "stateMutability": "nonpayable",
      "type": "function"
    }
  ],
  "bytecode": "0x6080604052348015600e575f5ffd5b50335f5f6101000a81548173ffffffffffffffffffffffffffffffffffffffff021916908373ffffffffffffffffffffffffffffffffffffffff160217905550612dda8061005b5f395ff3fe608060405234801561000f575f5ffd5b5060043610610114575f3560e01c806387d81789116100a0578063b0575dd21161006f578063b0575dd21461030c578063c22c4f4314610328578063eac3fda41461035d578063fd66091e1461037b578063ff17aca4146103b157610114565b806387d817891461026d5780638da5cb5b146102a2578063a7bd211c146102c0578063afcba247146102f057610114565b806349430bcf116100e757806349430bcf146101db57806376840b60146101f957806378bd80b6146102175780637b15f1b6146102335780637defdd731461024f57610114565b806306cd61b51461011857806318d054ac146101495780631b96612914610179578063480e9ffc146101a9575b5f5ffd5b610132600480360381019061012d9190611dad565b6103cd565b604051610140929190611df0565b60405180910390f35b610163600480360381019061015e9190611e41565b6105da565b6040516101709190611e99565b60405180910390f35b610193600480360381019061018e9190611e41565b610604565b6040516101a09190611e99565b60405180910390f35b6101c360048036038101906101be9190611eb2565b61062e565b6040516101d293929190611f1a565b60405180910390f35b6101e3610699565b6040516101f09190611f4f565b60405180910390f35b6102016106be565b60405161020e9190611f68565b60405180910390f35b610231600480360381019061022c9190611fab565b6106c4565b005b61024d6004803603810190610248919061204a565b610cb7565b005b610257610f7b565b6040516102649190611f68565b60405180910390f35b610287600480360381019061028291906120db565b610f81565b60405161029996959493929190612106565b60405180910390f35b6102aa610ff7565b6040516102b79190611f4f565b60405180910390f35b6102da60048036038101906102d591906120db565b61101b565b6040516102e79190611f4f565b60405180910390f35b61030a60048036038101906103059190611dad565b611056565b005b61032660048036038101906103219190612165565b6111d8565b005b610342600480360381019061033d91906120db565b6116d6565b60405161035496959493929190612225565b60405180910390f35b610365611845565b6040516103729190612349565b60405180910390f35b61039560048036038101906103909190611dad565b6118d0565b6040516103a89796959493929190612369565b60405180910390f35b6103cb60048036038101906103c691906123e4565b611a45565b005b5f5f5f60045f8573ffffffffffffffffffffffffffffffffffffffff1673ffffffffffffffffffffffffffffffffffffffff1681526020019081526020015f206040518060e00160405290815f82015f9054906101000a900473ffffffffffffffffffffffffffffffffffffffff1673ffffffffffffffffffffffffffffffffffffffff1673ffffffffffffffffffffffffffffffffffffffff16815260200160018201805461047c9061248f565b80601f01602080910402602001604051908101604052809291908181526020018280546104a89061248f565b80156104f35780601f106104ca576101008083540402835291602001916104f3565b820191905f5260205f20905b8154815290600101906020018083116104d657829003601f168201915b5050505050815260200160028201805461050c9061248f565b80601f01602080910402602001604051908101604052809291908181526020018280546105389061248f565b80156105835780601f1061055a57610100808354040283529160200191610583565b820191905f5260205f20905b81548152906001019060200180831161056657829003601f168201915b50505050508152602001600382015481526020016004820154815260200160058201548152602001600682015f9054906101000a900460ff1615151515815250509050806060015181608001519250925050915091565b6009602052815f5260405f20602052805f5260405f205f915091509054906101000a900460ff1681565b600a602052815f5260405f20602052805f5260405f205f915091509054906101000a900460ff1681565b6007602052815f5260405f208181548110610647575f80fd5b905f5260205f2090600302015f9150915050805f015f9054906101000a900473ffffffffffffffffffffffffffffffffffffffff1690806001015490806002015f9054906101000a900460ff16905083565b60015f9054906101000a900473ffffffffffffffffffffffffffffffffffffffff1681565b60035481565b60018160ff16101580156106dc575060058160ff1611155b61071b576040517f08c379a000000000000000000000000000000000000000000000000000000000815260040161071290612509565b60405180910390fd5b60095f3373ffffffffffffffffffffffffffffffffffffffff1673ffffffffffffffffffffffffffffffffffffffff1681526020019081526020015f205f8381526020019081526020015f205f9054906101000a900460ff166107b3576040517f08c379a00000000000000000000000000000000000000000000000000000000081526004016107aa90612571565b60405180910390fd5b600a5f3373ffffffffffffffffffffffffffffffffffffffff1673ffffffffffffffffffffffffffffffffffffffff1681526020019081526020015f205f8381526020019081526020015f205f9054906101000a900460ff161561084c576040517f08c379a0000000000000000000000000000000000000000000000000000000008152600401610843906125d9565b60405180910390fd5b5f60055f8481526020019081526020015f206040518060c00160405290815f8201548152602001600182015f9054906101000a900473ffffffffffffffffffffffffffffffffffffffff1673ffffffffffffffffffffffffffffffffffffffff1673ffffffffffffffffffffffffffffffffffffffff1681526020016002820180546108d79061248f565b80601f01602080910402602001604051908101604052809291908181526020018280546109039061248f565b801561094e5780601f106109255761010080835404028352916020019161094e565b820191905f5260205f20905b81548152906001019060200180831161093157829003601f168201915b505050505081526020016003820180546109679061248f565b80601f01602080910402602001604051908101604052809291908181526020018280546109939061248f565b80156109de5780601f106109b5576101008083540402835291602001916109de565b820191905f5260205f20905b8154815290600101906020018083116109c157829003601f168201915b5050505050815260200160048201548152602001600582015f9054906101000a900460ff16151515158152505090505f73ffffffffffffffffffffffffffffffffffffffff16816020015173ffffffffffffffffffffffffffffffffffffffff1603610a7f576040517f08c379a0000000000000000000000000000000000000000000000000000000008152600401610a7690612641565b60405180910390fd5b6001600a5f3373ffffffffffffffffffffffffffffffffffffffff1673ffffffffffffffffffffffffffffffffffffffff1681526020019081526020015f205f8581526020019081526020015f205f6101000a81548160ff02191690831515021790555060075f8481526020019081526020015f2060405180606001604052803373ffffffffffffffffffffffffffffffffffffffff1681526020018581526020018460ff16815250908060018154018082558091505060019003905f5260205f2090600302015f909190919091505f820151815f015f6101000a81548173ffffffffffffffffffffffffffffffffffffffff021916908373ffffffffffffffffffffffffffffffffffffffff160217905550602082015181600101556040820151816002015f6101000a81548160ff021916908360ff16021790555050505f60045f836020015173ffffffffffffffffffffffffffffffffffffffff1673ffffffffffffffffffffffffffffffffffffffff1681526020019081526020015f2090506001816004015f828254610c16919061268c565b925050819055508260ff16816005015f828254610c33919061268c565b92505081905550806004015460648260050154610c5091906126bf565b610c5a919061272d565b81600301819055503373ffffffffffffffffffffffffffffffffffffffff16847f29e8c5e7e5f0c5abc9aad814ca3d1ad90a8c6b75763e567cfbf40363853a087885604051610ca9919061275d565b60405180910390a350505050565b60045f3373ffffffffffffffffffffffffffffffffffffffff1673ffffffffffffffffffffffffffffffffffffffff1681526020019081526020015f206006015f9054906101000a900460ff16610d43576040517f08c379a0000000000000000000000000000000000000000000000000000000008152600401610d3a906127c0565b60405180910390fd5b5f8111610d85576040517f08c379a0000000000000000000000000000000000000000000000000000000008152600401610d7c90612828565b60405180910390fd5b60025f815480929190610d9790612846565b91905055506040518060c0016040528060025481526020013373ffffffffffffffffffffffffffffffffffffffff16815260200186868080601f0160208091040260200160405190810160405280939291908181526020018383808284375f81840152601f19601f82011690508083019250505050505050815260200184848080601f0160208091040260200160405190810160405280939291908181526020018383808284375f81840152601f19601f8201169050808301925050505050505081526020018281526020016001151581525060055f60025481526020019081526020015f205f820151815f01556020820151816001015f6101000a81548173ffffffffffffffffffffffffffffffffffffffff021916908373ffffffffffffffffffffffffffffffffffffffff1602179055506040820151816002019081610ee09190612a5a565b506060820151816003019081610ef69190612a5a565b506080820151816004015560a0820151816005015f6101000a81548160ff0219169083151502179055509050503373ffffffffffffffffffffffffffffffffffffffff166002547fee09418e2c452193e2b5ab05d5443259213934d900e8152e09caa7d6dbb68b3783604051610f6c9190611f68565b60405180910390a35050505050565b60025481565b6006602052805f5260405f205f91509050805f015490806001015490806002015f9054906101000a900473ffffffffffffffffffffffffffffffffffffffff1690806003015f9054906101000a900473ffffffffffffffffffffffffffffffffffffffff16908060040154908060050154905086565b5f5f9054906101000a900473ffffffffffffffffffffffffffffffffffffffff1681565b6008818154811061102a575f80fd5b905f5260205f20015f915054906101000a900473ffffffffffffffffffffffffffffffffffffffff1681565b5f5f9054906101000a900473ffffffffffffffffffffffffffffffffffffffff1673ffffffffffffffffffffffffffffffffffffffff163373ffffffffffffffffffffffffffffffffffffffff16146110e4576040517f08c379a00000000000000000000000000000000000000000000000000000000081526004016110db90612b73565b60405180910390fd5b5f73ffffffffffffffffffffffffffffffffffffffff168173ffffffffffffffffffffffffffffffffffffffff1603611152576040517f08c379a000000000000000000000000000000000000000000000000000000000815260040161114990612bdb565b60405180910390fd5b8060015f6101000a81548173ffffffffffffffffffffffffffffffffffffffff021916908373ffffffffffffffffffffffffffffffffffffffff1602179055508073ffffffffffffffffffffffffffffffffffffffff167f86ecdcad0dd46bcf2cba08eceb478ce372f3fb93f0f7a3dead0b26e85a26bfe860405160405180910390a250565b60015f9054906101000a900473ffffffffffffffffffffffffffffffffffffffff1673ffffffffffffffffffffffffffffffffffffffff163373ffffffffffffffffffffffffffffffffffffffff1614611267576040517f08c379a000000000000000000000000000000000000000000000000000000000815260040161125e90612c43565b60405180910390fd5b5f60055f8581526020019081526020015f206040518060c00160405290815f8201548152602001600182015f9054906101000a900473ffffffffffffffffffffffffffffffffffffffff1673ffffffffffffffffffffffffffffffffffffffff1673ffffffffffffffffffffffffffffffffffffffff1681526020016002820180546112f29061248f565b80601f016020809104026020016040519081016040528092919081815260200182805461131e9061248f565b80156113695780601f1061134057610100808354040283529160200191611369565b820191905f5260205f20905b81548152906001019060200180831161134c57829003601f168201915b505050505081526020016003820180546113829061248f565b80601f01602080910402602001604051908101604052809291908181526020018280546113ae9061248f565b80156113f95780601f106113d0576101008083540402835291602001916113f9565b820191905f5260205f20905b8154815290600101906020018083116113dc57829003601f168201915b5050505050815260200160048201548152602001600582015f9054906101000a900460ff16151515158152505090505f73ffffffffffffffffffffffffffffffffffffffff16816020015173ffffffffffffffffffffffffffffffffffffffff160361149a576040517f08c379a000000000000000000000000000000000000000000000000000000000815260040161149190612641565b60405180910390fd5b5f82116114dc576040517f08c379a00000000000000000000000000000000000000000000000000000000081526004016114d390612cab565b60405180910390fd5b60035f8154809291906114ee90612846565b91905055506040518060c0016040528060035481526020018581526020018473ffffffffffffffffffffffffffffffffffffffff168152602001826020015173ffffffffffffffffffffffffffffffffffffffff1681526020018381526020014281525060065f60035481526020019081526020015f205f820151815f0155602082015181600101556040820151816002015f6101000a81548173ffffffffffffffffffffffffffffffffffffffff021916908373ffffffffffffffffffffffffffffffffffffffff1602179055506060820151816003015f6101000a81548173ffffffffffffffffffffffffffffffffffffffff021916908373ffffffffffffffffffffffffffffffffffffffff1602179055506080820151816004015560a08201518160050155905050600160095f8573ffffffffffffffffffffffffffffffffffffffff1673ffffffffffffffffffffffffffffffffffffffff1681526020019081526020015f205f8681526020019081526020015f205f6101000a81548160ff0219169083151502179055508273ffffffffffffffffffffffffffffffffffffffff16846003547f8725f2c5dd483495a2c861c070dbfb5bdabfa6e3822b65f51ee924e8c3faae3a856040516116c89190611f68565b60405180910390a450505050565b6005602052805f5260405f205f91509050805f015490806001015f9054906101000a900473ffffffffffffffffffffffffffffffffffffffff16908060020180546117209061248f565b80601f016020809104026020016040519081016040528092919081815260200182805461174c9061248f565b80156117975780601f1061176e57610100808354040283529160200191611797565b820191905f5260205f20905b81548152906001019060200180831161177a57829003601f168201915b5050505050908060030180546117ac9061248f565b80601f01602080910402602001604051908101604052809291908181526020018280546117d89061248f565b80156118235780601f106117fa57610100808354040283529160200191611823565b820191905f5260205f20905b81548152906001019060200180831161180657829003601f168201915b505050505090806004015490806005015f9054906101000a900460ff16905086565b606060088054806020026020016040519081016040528092919081815260200182805480156118c657602002820191905f5260205f20905b815f9054906101000a900473ffffffffffffffffffffffffffffffffffffffff1673ffffffffffffffffffffffffffffffffffffffff168152602001906001019080831161187d575b5050505050905090565b6004602052805f5260405f205f91509050805f015f9054906101000a900473ffffffffffffffffffffffffffffffffffffffff16908060010180546119149061248f565b80601f01602080910402602001604051908101604052809291908181526020018280546119409061248f565b801561198b5780601f106119625761010080835404028352916020019161198b565b820191905f5260205f20905b81548152906001019060200180831161196e57829003601f168201915b5050505050908060020180546119a09061248f565b80601f01602080910402602001604051908101604052809291908181526020018280546119cc9061248f565b8015611a175780601f106119ee57610100808354040283529160200191611a17565b820191905f5260205f20905b8154815290600101906020018083116119fa57829003601f168201915b505050505090806003015490806004015490806005015490806006015f9054906101000a900460ff16905087565b60045f3373ffffffffffffffffffffffffffffffffffffffff1673ffffffffffffffffffffffffffffffffffffffff1681526020019081526020015f206006015f9054906101000a900460ff1615611ad2576040517f08c379a0000000000000000000000000000000000000000000000000000000008152600401611ac990612d13565b60405180910390fd5b6040518060e001604052803373ffffffffffffffffffffffffffffffffffffffff16815260200185858080601f0160208091040260200160405190810160405280939291908181526020018383808284375f81840152601f19601f82011690508083019250505050505050815260200183838080601f0160208091040260200160405190810160405280939291908181526020018383808284375f81840152601f19601f8201169050808301925050505050505081526020015f81526020015f81526020015f81526020016001151581525060045f3373ffffffffffffffffffffffffffffffffffffffff1673ffffffffffffffffffffffffffffffffffffffff1681526020019081526020015f205f820151815f015f6101000a81548173ffffffffffffffffffffffffffffffffffffffff021916908373ffffffffffffffffffffffffffffffffffffffff1602179055506020820151816001019081611c3a9190612a5a565b506040820151816002019081611c509190612a5a565b50606082015181600301556080820151816004015560a0820151816005015560c0820151816006015f6101000a81548160ff021916908315150217905550905050600833908060018154018082558091505060019003905f5260205f20015f9091909190916101000a81548173ffffffffffffffffffffffffffffffffffffffff021916908373ffffffffffffffffffffffffffffffffffffffff1602179055503373ffffffffffffffffffffffffffffffffffffffff167f37b3aaf4f807403887412a5994aa1832eface4a8c15501a3311bf21d3279ea3f85858585604051611d3d9493929190612d6b565b60405180910390a250505050565b5f5ffd5b5f5ffd5b5f73ffffffffffffffffffffffffffffffffffffffff82169050919050565b5f611d7c82611d53565b9050919050565b611d8c81611d72565b8114611d96575f5ffd5b50565b5f81359050611da781611d83565b92915050565b5f60208284031215611dc257611dc1611d4b565b5b5f611dcf84828501611d99565b91505092915050565b5f819050919050565b611dea81611dd8565b82525050565b5f604082019050611e035f830185611de1565b611e106020830184611de1565b9392505050565b611e2081611dd8565b8114611e2a575f5ffd5b50565b5f81359050611e3b81611e17565b92915050565b5f5f60408385031215611e5757611e56611d4b565b5b5f611e6485828601611d99565b9250506020611e7585828601611e2d565b9150509250929050565b5f8115159050919050565b611e9381611e7f565b82525050565b5f602082019050611eac5f830184611e8a565b92915050565b5f5f60408385031215611ec857611ec7611d4b565b5b5f611ed585828601611e2d565b9250506020611ee685828601611e2d565b9150509250929050565b611ef981611d72565b82525050565b5f60ff82169050919050565b611f1481611eff565b82525050565b5f606082019050611f2d5f830186611ef0565b611f3a6020830185611de1565b611f476040830184611f0b565b949350505050565b5f602082019050611f625f830184611ef0565b92915050565b5f602082019050611f7b5f830184611de1565b92915050565b611f8a81611eff565b8114611f94575f5ffd5b50565b5f81359050611fa581611f81565b92915050565b5f5f60408385031215611fc157611fc0611d4b565b5b5f611fce85828601611e2d565b9250506020611fdf85828601611f97565b9150509250929050565b5f5ffd5b5f5ffd5b5f5ffd5b5f5f83601f84011261200a57612009611fe9565b5b8235905067ffffffffffffffff81111561202757612026611fed565b5b60208301915083600182028301111561204357612042611ff1565b5b9250929050565b5f5f5f5f5f6060868803121561206357612062611d4b565b5b5f86013567ffffffffffffffff8111156120805761207f611d4f565b5b61208c88828901611ff5565b9550955050602086013567ffffffffffffffff8111156120af576120ae611d4f565b5b6120bb88828901611ff5565b935093505060406120ce88828901611e2d565b9150509295509295909350565b5f602082840312156120f0576120ef611d4b565b5b5f6120fd84828501611e2d565b91505092915050565b5f60c0820190506121195f830189611de1565b6121266020830188611de1565b6121336040830187611ef0565b6121406060830186611ef0565b61214d6080830185611de1565b61215a60a0830184611de1565b979650505050505050565b5f5f5f6060848603121561217c5761217b611d4b565b5b5f61218986828701611e2d565b935050602061219a86828701611d99565b92505060406121ab86828701611e2d565b9150509250925092565b5f81519050919050565b5f82825260208201905092915050565b8281835e5f83830152505050565b5f601f19601f8301169050919050565b5f6121f7826121b5565b61220181856121bf565b93506122118185602086016121cf565b61221a816121dd565b840191505092915050565b5f60c0820190506122385f830189611de1565b6122456020830188611ef0565b818103604083015261225781876121ed565b9050818103606083015261226b81866121ed565b905061227a6080830185611de1565b61228760a0830184611e8a565b979650505050505050565b5f81519050919050565b5f82825260208201905092915050565b5f819050602082019050919050565b6122c481611d72565b82525050565b5f6122d583836122bb565b60208301905092915050565b5f602082019050919050565b5f6122f782612292565b612301818561229c565b935061230c836122ac565b805f5b8381101561233c57815161232388826122ca565b975061232e836122e1565b92505060018101905061230f565b5085935050505092915050565b5f6020820190508181035f83015261236181846122ed565b905092915050565b5f60e08201905061237c5f83018a611ef0565b818103602083015261238e81896121ed565b905081810360408301526123a281886121ed565b90506123b16060830187611de1565b6123be6080830186611de1565b6123cb60a0830185611de1565b6123d860c0830184611e8a565b98975050505050505050565b5f5f5f5f604085870312156123fc576123fb611d4b565b5b5f85013567ffffffffffffffff81111561241957612418611d4f565b5b61242587828801611ff5565b9450945050602085013567ffffffffffffffff81111561244857612447611d4f565b5b61245487828801611ff5565b925092505092959194509250565b7f4e487b71000000000000000000000000000000000000000000000000000000005f52602260045260245ffd5b5f60028204905060018216806124a657607f821691505b6020821081036124b9576124b8612462565b5b50919050565b7f53636f7265206d75737420626520312d350000000000000000000000000000005f82015250565b5f6124f36011836121bf565b91506124fe826124bf565b602082019050919050565b5f6020820190508181035f830152612520816124e7565b9050919050565b7f53657276696365206e6f742070757263686173656400000000000000000000005f82015250565b5f61255b6015836121bf565b915061256682612527565b602082019050919050565b5f6020820190508181035f8301526125888161254f565b9050919050565b7f416c7265616479207261746564000000000000000000000000000000000000005f82015250565b5f6125c3600d836121bf565b91506125ce8261258f565b602082019050919050565b5f6020820190508181035f8301526125f0816125b7565b9050919050565b7f496e76616c6964207365727669636500000000000000000000000000000000005f82015250565b5f61262b600f836121bf565b9150612636826125f7565b602082019050919050565b5f6020820190508181035f8301526126588161261f565b9050919050565b7f4e487b71000000000000000000000000000000000000000000000000000000005f52601160045260245ffd5b5f61269682611dd8565b91506126a183611dd8565b92508282019050808211156126b9576126b861265f565b5b92915050565b5f6126c982611dd8565b91506126d483611dd8565b92508282026126e281611dd8565b915082820484148315176126f9576126f861265f565b5b5092915050565b7f4e487b71000000000000000000000000000000000000000000000000000000005f52601260045260245ffd5b5f61273782611dd8565b915061274283611dd8565b92508261275257612751612700565b5b828204905092915050565b5f6020820190506127705f830184611f0b565b92915050565b7f4167656e74206e6f7420726567697374657265640000000000000000000000005f82015250565b5f6127aa6014836121bf565b91506127b582612776565b602082019050919050565b5f6020820190508181035f8301526127d78161279e565b9050919050565b7f496e76616c6964207072696365000000000000000000000000000000000000005f82015250565b5f612812600d836121bf565b915061281d826127de565b602082019050919050565b5f6020820190508181035f83015261283f81612806565b9050919050565b5f61285082611dd8565b91507fffffffffffffffffffffffffffffffffffffffffffffffffffffffffffffffff82036128825761288161265f565b5b600182019050919050565b7f4e487b71000000000000000000000000000000000000000000000000000000005f52604160045260245ffd5b5f819050815f5260205f209050919050565b5f6020601f8301049050919050565b5f82821b905092915050565b5f600883026129167fffffffffffffffffffffffffffffffffffffffffffffffffffffffffffffffff826128db565b61292086836128db565b95508019841693508086168417925050509392505050565b5f819050919050565b5f61295b61295661295184611dd8565b612938565b611dd8565b9050919050565b5f819050919050565b61297483612941565b61298861298082612962565b8484546128e7565b825550505050565b5f5f905090565b61299f612990565b6129aa81848461296b565b505050565b5b818110156129cd576129c25f82612997565b6001810190506129b0565b5050565b601f821115612a12576129e3816128ba565b6129ec846128cc565b810160208510156129fb578190505b612a0f612a07856128cc565b8301826129af565b50505b505050565b5f82821c905092915050565b5f612a325f1984600802612a17565b1980831691505092915050565b5f612a4a8383612a23565b9150826002028217905092915050565b612a63826121b5565b67ffffffffffffffff811115612a7c57612a7b61288d565b5b612a86825461248f565b612a918282856129d1565b5f60209050601f831160018114612ac2575f8415612ab0578287015190505b612aba8582612a3f565b865550612b21565b601f198416612ad0866128ba565b5f5b82811015612af757848901518255600182019150602085019450602081019050612ad2565b86831015612b145784890151612b10601f891682612a23565b8355505b6001600288020188555050505b505050505050565b7f4f6e6c79206f776e6572000000000000000000000000000000000000000000005f82015250565b5f612b5d600a836121bf565b9150612b6882612b29565b602082019050919050565b5f6020820190508181035f830152612b8a81612b51565b9050919050565b7f496e76616c6964206261636b656e6400000000000000000000000000000000005f82015250565b5f612bc5600f836121bf565b9150612bd082612b91565b602082019050919050565b5f6020820190508181035f830152612bf281612bb9565b9050919050565b7f4f6e6c79206261636b656e6400000000000000000000000000000000000000005f82015250565b5f612c2d600c836121bf565b9150612c3882612bf9565b602082019050919050565b5f6020820190508181035f830152612c5a81612c21565b9050919050565b7f496e76616c696420616d6f756e740000000000000000000000000000000000005f82015250565b5f612c95600e836121bf565b9150612ca082612c61565b602082019050919050565b5f6020820190508181035f830152612cc281612c89565b9050919050565b7f416c7265616479207265676973746572656400000000000000000000000000005f82015250565b5f612cfd6012836121bf565b9150612d0882612cc9565b602082019050919050565b5f6020820190508181035f830152612d2a81612cf1565b9050919050565b828183375f83830152505050565b5f612d4a83856121bf565b9350612d57838584612d31565b612d60836121dd565b840190509392505050565b5f6040820190508181035f830152612d84818688612d3f565b90508181036020830152612d99818486612d3f565b90509594505050505056fea2646970667358221220f44276b01579432cd7f8f4210b69434c2bf15023380be35c5ac5c29b3b75d29964736f6c634300081c0033",
  "linkReferences": {},
  "deployedLinkReferences": {},
  "immutableReferences": {},
  "inputSourceName": "project/contracts/AgentMarketplace.sol",
  "buildInfoId": "solc-0_8_28-68f96cd05d54549c85c95e4bc9de00eac9cd6535"
}